{
  "abi": [
    {
      "inputs": [
        {
          "internalType": "uint256",
          "name": "entranceFee",
          "type": "uint256"
        },
        {
          "internalType": "uint256",
          "name": "interval",
          "type": "uint256"
        },
        {
          "internalType": "address",
          "name": "vrfCoordinator",
          "type": "address"
        },
        {
          "internalType": "bytes32",
          "name": "gasLane",
          "type": "bytes32"
        },
        {
          "internalType": "uint64",
          "name": "subscriptionId",
          "type": "uint64"
        },
        {
          "internalType": "uint32",
          "name": "callbackGasLimit",
          "type": "uint32"
        }
      ],
      "stateMutability": "nonpayable",
      "type": "constructor"
    },
    {
      "inputs": [
        {
          "internalType": "address",
          "name": "have",
          "type": "address"
        },
        {
          "internalType": "address",
          "name": "want",
          "type": "address"
        }
      ],
      "name": "OnlyCoordinatorCanFulfill",
      "type": "error"
    },
    {
      "inputs": [],
      "name": "Raffle__NotEnoughEthSent",
      "type": "error"
    },
    {
      "inputs": [],
      "name": "Raffle__RaffleNotOpen",
      "type": "error"
    },
    {
      "inputs": [],
      "name": "Raffle__TransferFailed",
      "type": "error"
    },
    {
      "inputs": [
        {
          "internalType": "uint256",
          "name": "currentBalance",
          "type": "uint256"
        },
        {
          "internalType": "uint256",
          "name": "numPlayers",
          "type": "uint256"
        },
        {
          "internalType": "uint256",
          "name": "raffleState",
          "type": "uint256"
        }
      ],
      "name": "Raffle__UpkeepNotNeeded",
      "type": "error"
    },
    {
      "anonymous": false,
      "inputs": [
        {
          "indexed": true,
          "internalType": "address",
          "name": "player",
          "type": "address"
        }
      ],
      "name": "EnteredRaffle",
      "type": "event"
    },
    {
      "anonymous": false,
      "inputs": [
        {
          "indexed": true,
          "internalType": "address",
          "name": "winner",
          "type": "address"
        }
      ],
      "name": "PickedWinner",
      "type": "event"
    },
    {
      "inputs": [
        {
          "internalType": "bytes",
          "name": "",
          "type": "bytes"
        }
      ],
      "name": "checkUpKeep",
      "outputs": [
        {
          "internalType": "bool",
          "name": "upkeepNeeded",
          "type": "bool"
        },
        {
          "internalType": "bytes",
          "name": "",
          "type": "bytes"
        }
      ],
      "stateMutability": "view",
      "type": "function"
    },
    {
      "inputs": [],
      "name": "enterRaffle",
      "outputs": [],
      "stateMutability": "payable",
      "type": "function"
    },
    {
      "inputs": [],
      "name": "getEntranceFee",
      "outputs": [
        {
          "internalType": "uint256",
          "name": "",
          "type": "uint256"
        }
      ],
      "stateMutability": "view",
      "type": "function"
    },
    {
      "inputs": [
        {
          "internalType": "uint256",
          "name": "indexOfPlayer",
          "type": "uint256"
        }
      ],
      "name": "getPlayer",
      "outputs": [
        {
          "internalType": "address",
          "name": "",
          "type": "address"
        }
      ],
      "stateMutability": "view",
      "type": "function"
    },
    {
      "inputs": [],
      "name": "getRaffleState",
      "outputs": [
        {
          "internalType": "enum Raffle.RaffleState",
          "name": "",
          "type": "uint8"
        }
      ],
      "stateMutability": "view",
      "type": "function"
    },
    {
      "inputs": [
        {
          "internalType": "bytes",
          "name": "",
          "type": "bytes"
        }
      ],
      "name": "performUpkeep",
      "outputs": [],
      "stateMutability": "nonpayable",
      "type": "function"
    },
    {
      "inputs": [
        {
          "internalType": "uint256",
          "name": "requestId",
          "type": "uint256"
        },
        {
          "internalType": "uint256[]",
          "name": "randomWords",
          "type": "uint256[]"
        }
      ],
      "name": "rawFulfillRandomWords",
      "outputs": [],
      "stateMutability": "nonpayable",
      "type": "function"
    }
  ],
  "bytecode": {
    "object": "0x61016060405234801561001157600080fd5b50604051610c0a380380610c0a83398101604081905261003091610087565b6001600160a01b0393909316608081905260a09590955260c09390935260e093909352610100929092526001600160401b03166101205263ffffffff16610140526002805460ff60a01b1916905542600155610112565b60008060008060008060c087890312156100a057600080fd5b86516020880151604089015191975095506001600160a01b03811681146100c657600080fd5b6060880151608089015191955093506001600160401b03811681146100ea57600080fd5b60a088015190925063ffffffff8116811461010457600080fd5b809150509295509295509295565b60805160a05160c05160e051610100516101205161014051610a9161017960003960006103f5015260006103be0152600061039801526000610430015260006104ab0152600081816087015261021b01526000818161019701526101d90152610a916000f3fe6080604052600436106100705760003560e01c80632cfcc5391161004e5780632cfcc539146100fe5780634585e33b146101065780635e6c102e14610126578063e55ae4e81461015457600080fd5b806309bc33a714610075578063115cbaf5146100b55780631fe543e3146100dc575b600080fd5b34801561008157600080fd5b506040517f000000000000000000000000000000000000000000000000000000000000000081526020015b60405180910390f35b3480156100c157600080fd5b50600254600160a01b900460ff166040516100ac919061074a565b3480156100e857600080fd5b506100fc6100f73660046107b9565b61018c565b005b6100fc610219565b34801561011257600080fd5b506100fc61012136600461086b565b610304565b34801561013257600080fd5b506101466101413660046108dd565b6104a3565b6040516100ac929190610972565b34801561016057600080fd5b5061017461016f3660046109ca565b610550565b6040516001600160a01b0390911681526020016100ac565b336001600160a01b037f0000000000000000000000000000000000000000000000000000000000000000161461020b5760405163073e64fd60e21b81523360048201526001600160a01b037f00000000000000000000000000000000000000000000000000000000000000001660248201526044015b60405180910390fd5b610215828261057f565b5050565b7f000000000000000000000000000000000000000000000000000000000000000034111561025a5760405163246b904d60e01b815260040160405180910390fd5b6000600254600160a01b900460ff16600181111561027a5761027a610734565b146102985760405163349289c560e21b815260040160405180910390fd5b600080546001810182558180527f290decd9548b62a8d60345a988386fc84ba6bc95484008f6362f93160ef3e5630180546001600160a01b0319163390811790915560405190917f819fbd717c9d0b421352c5116a644ca68ba176960c33f406f08d98a27370ca2791a2565b600061031e604051806020016040528060008152506104a3565b5090508061037457600054600254479190600160a01b900460ff16600181111561034a5761034a610734565b604051632c2193d560e11b8152600481019390935260248301919091526044820152606401610202565b60028054600160a01b60ff60a01b199091161790556040516305d3b1d360e41b81527f000000000000000000000000000000000000000000000000000000000000000060048201527f000000000000000000000000000000000000000000000000000000000000000067ffffffffffffffff166024820152600360448201527f000000000000000000000000000000000000000000000000000000000000000063ffffffff166064820152600160848201526001600160a01b037f00000000000000000000000000000000000000000000000000000000000000001690635d3b1d309060a4016020604051808303816000875af1158015610479573d6000803e3d6000fd5b505050506040513d601f19601f8201168201806040525081019061049d91906109e3565b50505050565b6000606060007f0000000000000000000000000000000000000000000000000000000000000000600154426104d891906109fc565b101590506000600260149054906101000a900460ff1660018111156104ff576104ff610734565b600054901591504715159015158380156105165750825b801561051f5750815b80156105285750805b60408051808201909152600381526203078360ec1b6020820152909890975095505050505050565b600080828154811061056457610564610a23565b6000918252602090912001546001600160a01b031692915050565b6000805482518390839061059557610595610a23565b60200260200101516105a79190610a39565b905060008082815481106105bd576105bd610a23565b600091825260208083209190910154600280546001600160a81b0319166001600160a01b039092169182179055604080518481529283019081905291519093506106089291906106ba565b50426001556040516000906001600160a01b0383169047908381818185875af1925050503d8060008114610658576040519150601f19603f3d011682016040523d82523d6000602084013e61065d565b606091505b505090508061067f5760405163a1d04b3960e01b815260040160405180910390fd5b6040516001600160a01b038316907fb112587e57bfa970257f3d54fc52859c6300f6bd7a982462c320fed45c2530ed90600090a25050505050565b82805482825590600052602060002090810192821561070f579160200282015b8281111561070f57825182546001600160a01b0319166001600160a01b039091161782556020909201916001909101906106da565b5061071b92915061071f565b5090565b5b8082111561071b5760008155600101610720565b634e487b7160e01b600052602160045260246000fd5b602081016002831061076c57634e487b7160e01b600052602160045260246000fd5b91905290565b634e487b7160e01b600052604160045260246000fd5b604051601f8201601f1916810167ffffffffffffffff811182821017156107b1576107b1610772565b604052919050565b600080604083850312156107cc57600080fd5b8235915060208084013567ffffffffffffffff808211156107ec57600080fd5b818601915086601f83011261080057600080fd5b81358181111561081257610812610772565b8060051b9150610823848301610788565b818152918301840191848101908984111561083d57600080fd5b938501935b8385101561085b57843582529385019390850190610842565b8096505050505050509250929050565b6000806020838503121561087e57600080fd5b823567ffffffffffffffff8082111561089657600080fd5b818501915085601f8301126108aa57600080fd5b8135818111156108b957600080fd5b8660208285010111156108cb57600080fd5b60209290920196919550909350505050565b600060208083850312156108f057600080fd5b823567ffffffffffffffff8082111561090857600080fd5b818501915085601f83011261091c57600080fd5b81358181111561092e5761092e610772565b610940601f8201601f19168501610788565b9150808252868482850101111561095657600080fd5b8084840185840137600090820190930192909252509392505050565b821515815260006020604081840152835180604085015260005b818110156109a85785810183015185820160600152820161098c565b506000606082860101526060601f19601f830116850101925050509392505050565b6000602082840312156109dc57600080fd5b5035919050565b6000602082840312156109f557600080fd5b5051919050565b81810381811115610a1d57634e487b7160e01b600052601160045260246000fd5b92915050565b634e487b7160e01b600052603260045260246000fd5b600082610a5657634e487b7160e01b600052601260045260246000fd5b50069056fea26469706673582212209a83e370a7981007dbc53b178c9dc945c0732404c8ec4ab749e2a505a76d982064736f6c63430008140033",
    "linkReferences": {}
  },
  "methodIdentifiers": {
    "checkUpKeep(bytes)": "5e6c102e",
    "enterRaffle()": "2cfcc539",
    "getEntranceFee()": "09bc33a7",
    "getPlayer(uint256)": "e55ae4e8",
    "getRaffleState()": "115cbaf5",
    "performUpkeep(bytes)": "4585e33b",
    "rawFulfillRandomWords(uint256,uint256[])": "1fe543e3"
  },
  "id": 26
}